{
  "contractName": "DeBank",
  "abi": [
    {
      "inputs": [
        {
          "internalType": "contract Token",
          "name": "_token",
          "type": "address"
        }
      ],
      "stateMutability": "nonpayable",
      "type": "constructor"
    },
    {
      "anonymous": false,
      "inputs": [
        {
          "indexed": false,
          "internalType": "address",
          "name": "id",
          "type": "address"
        },
        {
          "indexed": false,
          "internalType": "uint256",
          "name": "balance",
          "type": "uint256"
        }
      ],
      "name": "acc",
      "type": "event"
    },
    {
      "inputs": [
        {
          "internalType": "address",
          "name": "",
          "type": "address"
        }
      ],
      "name": "accounts",
      "outputs": [
        {
          "internalType": "address",
          "name": "id",
          "type": "address"
        },
        {
          "internalType": "uint256",
          "name": "balance",
          "type": "uint256"
        },
        {
          "internalType": "uint256",
          "name": "timestamp",
          "type": "uint256"
        }
      ],
      "stateMutability": "view",
      "type": "function",
      "constant": true
    },
    {
      "inputs": [
        {
          "internalType": "address",
          "name": "",
          "type": "address"
        }
      ],
      "name": "balance",
      "outputs": [
        {
          "internalType": "uint256",
          "name": "",
          "type": "uint256"
        }
      ],
      "stateMutability": "view",
      "type": "function",
      "constant": true
    },
    {
      "inputs": [],
      "name": "deposit",
      "outputs": [],
      "stateMutability": "payable",
      "type": "function",
      "payable": true
    },
    {
      "inputs": [],
      "name": "withdraw",
      "outputs": [],
      "stateMutability": "payable",
      "type": "function",
      "payable": true
    }
  ],
  "bytecode": "0x608060405234801561001057600080fd5b50604051610690380380610690833981810160405281019061003291906100ed565b806000806101000a81548173ffffffffffffffffffffffffffffffffffffffff021916908373ffffffffffffffffffffffffffffffffffffffff1602179055505061011a565b600080fd5b600073ffffffffffffffffffffffffffffffffffffffff82169050919050565b60006100a88261007d565b9050919050565b60006100ba8261009d565b9050919050565b6100ca816100af565b81146100d557600080fd5b50565b6000815190506100e7816100c1565b92915050565b60006020828403121561010357610102610078565b5b6000610111848285016100d8565b91505092915050565b610567806101296000396000f3fe60806040526004361061003f5760003560e01c80633ccfd60b146100445780635e5c06e21461004e578063d0e30db01461008d578063e3d670d714610097575b600080fd5b61004c6100d4565b005b34801561005a57600080fd5b50610075600480360381019061007091906103dc565b6100d6565b60405161008493929190610431565b60405180910390f35b610095610120565b005b3480156100a357600080fd5b506100be60048036038101906100b991906103dc565b610361565b6040516100cb9190610468565b60405180910390f35b565b60016020528060005260406000206000915090508060000160009054906101000a900473ffffffffffffffffffffffffffffffffffffffff16908060010154908060020154905083565b6000600160003373ffffffffffffffffffffffffffffffffffffffff1673ffffffffffffffffffffffffffffffffffffffff1681526020019081526020016000206040518060600160405290816000820160009054906101000a900473ffffffffffffffffffffffffffffffffffffffff1673ffffffffffffffffffffffffffffffffffffffff1673ffffffffffffffffffffffffffffffffffffffff16815260200160018201548152602001600282015481525050905034600260003373ffffffffffffffffffffffffffffffffffffffff1673ffffffffffffffffffffffffffffffffffffffff1681526020019081526020016000205461022391906104b2565b600260003373ffffffffffffffffffffffffffffffffffffffff1673ffffffffffffffffffffffffffffffffffffffff1681526020019081526020016000208190555034816020015161027691906104b2565b81602001818152505080600160003373ffffffffffffffffffffffffffffffffffffffff1673ffffffffffffffffffffffffffffffffffffffff16815260200190815260200160002060008201518160000160006101000a81548173ffffffffffffffffffffffffffffffffffffffff021916908373ffffffffffffffffffffffffffffffffffffffff16021790555060208201518160010155604082015181600201559050507f1655803c88ca38bffa26585feaa8efc708b6c465b0b3c33c99a2af57d4f752ec81600001518260200151604051610356929190610508565b60405180910390a150565b60026020528060005260406000206000915090505481565b600080fd5b600073ffffffffffffffffffffffffffffffffffffffff82169050919050565b60006103a98261037e565b9050919050565b6103b98161039e565b81146103c457600080fd5b50565b6000813590506103d6816103b0565b92915050565b6000602082840312156103f2576103f1610379565b5b6000610400848285016103c7565b91505092915050565b6104128161039e565b82525050565b6000819050919050565b61042b81610418565b82525050565b60006060820190506104466000830186610409565b6104536020830185610422565b6104606040830184610422565b949350505050565b600060208201905061047d6000830184610422565b92915050565b7f4e487b7100000000000000000000000000000000000000000000000000000000600052601160045260246000fd5b60006104bd82610418565b91506104c883610418565b9250827fffffffffffffffffffffffffffffffffffffffffffffffffffffffffffffffff038211156104fd576104fc610483565b5b828201905092915050565b600060408201905061051d6000830185610409565b61052a6020830184610422565b939250505056fea26469706673582212206d7e88b4ede4b0e2308ce2ff299ff4a04ecd9884238bca73061ad7aa2ddd95a764736f6c634300080b0033",
  "immutableReferences": {},
  "source": "// SPDX-License-Identifier: MIT\npragma solidity ^0.8.0;\n\nimport './Token.sol';\n\ncontract DeBank {\n    // State variables\n    Token private token;    \n\n    // Equivalent to database\n    struct Account {\n        address id;\n        uint balance;\n        uint timestamp;\n    }\n\n    // Similar to declaring PK for adding data\n    mapping(address => Account) public accounts;\n\n    // Pass deployed Token address as argument(which comes from migration)\n    constructor(Token _token) { \n        token = _token;\n    }\n\n    event acc(\n        address id,\n        uint balance\n    );\n\n    // Similar to declaring PK in DB (address = PK(id), uint = balance table)\n    mapping(address => uint) public balance;\n\n    function deposit() payable public {\n        Account memory _account = accounts[msg.sender];\n        // Increase the balance\n        balance[msg.sender] = balance[msg.sender] + msg.value;\n        // Add new tip to the post\n        _account.balance = _account.balance + msg.value;\n\n        // Update the actual product in blockchain\n        accounts[msg.sender] = _account;\n\n        emit acc(_account.id, _account.balance);\n    }\n\n    function withdraw() payable public {\n\n    }\n}\n\n\n\n/*\nExtra Notes:\n    1) Why counter?\n    Solidity doesn't tell us how many products are in Struct. It returns empty vals if you've 5 prods and search for 6. \n\n    2) What is state/public variable?\n    Using public converts vaiable into function which can be used globally including console. More like auto increment PK.\n\n    3) Why to trigger event?\n    In Laravel, we return some value in the function. In solidity, we can trigger an event which will be passed as an argument in the callback of this function.\n\n    4) What is msg.sender?\n    It's the address of the person who calls the function i.e the one who makes the purchase with his wallet. In this case, msg. values come from metadata (msg.sender = from: buyer). \n\n    5) What is require() in a function?\n    The function will throw an exception and will stop the execution if the condition is not correct in order to save gas fee.\n\n    6) Why _ on parameters?\n    _ is just for naming convention to differentiate local variables from state variables. \n\n    7) What is Product memory _product?\n    Creates a duplicate copy of the product that exists in the blockchain and assigns it to the local variable _product. \n\n    8) What is payable?\n    Solidity can't let you transfer money or use metadata(msg) value without payable function. The variable which contains owner address also must have payable.\n\n    9) What happens ofter transfering the value?\n    Check the Ganache network. The msg.sender/from: buyer (3rd account) will lose 1 eth and owner (2nd account) will gain one.   \n\n    10) Why we use Wei?\n    Solidity doesn't have decimal data type. Therefore, we have to convert decimal values (actual ETH) into wei. In other words, Eth = Dollar, Wei = Cent.\n*/\n\n",
  "sourcePath": "/Users/jayz/Documents/Projects/Platforms/Web Development/Personal/DeBank (React + Solidity + Truffle + Ganache)/deBank/src/contracts/DeBank.sol",
  "compiler": {
    "name": "solc",
    "version": "0.8.11+commit.d7f03943.Emscripten.clang"
  },
  "schemaVersion": "3.4.4",
  "updatedAt": "2022-02-04T12:47:23.249Z",
  "networkType": "ethereum",
  "devdoc": {
    "kind": "dev",
    "methods": {},
    "version": 1
  },
  "userdoc": {
    "kind": "user",
    "methods": {},
    "version": 1
  }
}