{
  "contractName": "DeBank",
  "abi": [
    {
      "inputs": [
        {
          "internalType": "contract Token",
          "name": "_token",
          "type": "address"
        }
      ],
      "stateMutability": "nonpayable",
      "type": "constructor"
    },
    {
      "anonymous": false,
      "inputs": [
        {
          "indexed": false,
          "internalType": "address",
          "name": "id",
          "type": "address"
        },
        {
          "indexed": false,
          "internalType": "uint256",
          "name": "balance",
          "type": "uint256"
        },
        {
          "indexed": false,
          "internalType": "uint256",
          "name": "timestamp",
          "type": "uint256"
        },
        {
          "indexed": false,
          "internalType": "bool",
          "name": "active",
          "type": "bool"
        }
      ],
      "name": "DepositedETH",
      "type": "event"
    },
    {
      "anonymous": false,
      "inputs": [
        {
          "indexed": false,
          "internalType": "address",
          "name": "id",
          "type": "address"
        },
        {
          "indexed": false,
          "internalType": "uint256",
          "name": "balance",
          "type": "uint256"
        },
        {
          "indexed": false,
          "internalType": "uint256",
          "name": "timestamp",
          "type": "uint256"
        },
        {
          "indexed": false,
          "internalType": "bool",
          "name": "active",
          "type": "bool"
        },
        {
          "indexed": false,
          "internalType": "uint256",
          "name": "period",
          "type": "uint256"
        },
        {
          "indexed": false,
          "internalType": "uint256",
          "name": "interest",
          "type": "uint256"
        }
      ],
      "name": "WithdrawnEth",
      "type": "event"
    },
    {
      "inputs": [
        {
          "internalType": "address",
          "name": "",
          "type": "address"
        }
      ],
      "name": "accounts",
      "outputs": [
        {
          "internalType": "address",
          "name": "id",
          "type": "address"
        },
        {
          "internalType": "uint256",
          "name": "balance",
          "type": "uint256"
        },
        {
          "internalType": "uint256",
          "name": "timestamp",
          "type": "uint256"
        },
        {
          "internalType": "bool",
          "name": "active",
          "type": "bool"
        }
      ],
      "stateMutability": "view",
      "type": "function",
      "constant": true
    },
    {
      "inputs": [],
      "name": "depositETH",
      "outputs": [],
      "stateMutability": "payable",
      "type": "function",
      "payable": true
    },
    {
      "inputs": [],
      "name": "withdrawETH",
      "outputs": [],
      "stateMutability": "payable",
      "type": "function",
      "payable": true
    }
  ],
  "bytecode": "0x608060405234801561001057600080fd5b50604051610d62380380610d62833981810160405281019061003291906100ed565b806000806101000a81548173ffffffffffffffffffffffffffffffffffffffff021916908373ffffffffffffffffffffffffffffffffffffffff1602179055505061011a565b600080fd5b600073ffffffffffffffffffffffffffffffffffffffff82169050919050565b60006100a88261007d565b9050919050565b60006100ba8261009d565b9050919050565b6100ca816100af565b81146100d557600080fd5b50565b6000815190506100e7816100c1565b92915050565b60006020828403121561010357610102610078565b5b6000610111848285016100d8565b91505092915050565b610c39806101296000396000f3fe6080604052600436106100345760003560e01c80635e5c06e214610039578063e086e5ec14610079578063f6326fb314610083575b600080fd5b34801561004557600080fd5b50610060600480360381019061005b9190610775565b61008d565b60405161007094939291906107e5565b60405180910390f35b6100816100ea565b005b61008b610477565b005b60016020528060005260406000206000915090508060000160009054906101000a900473ffffffffffffffffffffffffffffffffffffffff16908060010154908060020154908060030160009054906101000a900460ff16905084565b6000600160003373ffffffffffffffffffffffffffffffffffffffff1673ffffffffffffffffffffffffffffffffffffffff1681526020019081526020016000206040518060800160405290816000820160009054906101000a900473ffffffffffffffffffffffffffffffffffffffff1673ffffffffffffffffffffffffffffffffffffffff1673ffffffffffffffffffffffffffffffffffffffff16815260200160018201548152602001600282015481526020016003820160009054906101000a900460ff1615151515815250509050600115158160600151151514610208576040517f08c379a00000000000000000000000000000000000000000000000000000000081526004016101ff906108ad565b60405180910390fd5b600081604001514261021a91906108fc565b905060006301e133806064600a85602001516102369190610930565b61024091906109b9565b61024a91906109b9565b90506000828261025a9190610930565b90503373ffffffffffffffffffffffffffffffffffffffff166108fc85602001519081150290604051600060405180830381858888f193505050501580156102a6573d6000803e3d6000fd5b5060008054906101000a900473ffffffffffffffffffffffffffffffffffffffff1673ffffffffffffffffffffffffffffffffffffffff1663d1b1916333662386f26fc100006040518363ffffffff1660e01b8152600401610309929190610a2f565b600060405180830381600087803b15801561032357600080fd5b505af1158015610337573d6000803e3d6000fd5b5050505060008460200181815250506000846040018181525050600084606001901515908115158152505083600160003373ffffffffffffffffffffffffffffffffffffffff1673ffffffffffffffffffffffffffffffffffffffff16815260200190815260200160002060008201518160000160006101000a81548173ffffffffffffffffffffffffffffffffffffffff021916908373ffffffffffffffffffffffffffffffffffffffff160217905550602082015181600101556040820151816002015560608201518160030160006101000a81548160ff0219169083151502179055509050507f8bfa97a332229ad80360c7c5aa759d542c0b82823c606c409077dcfb2d6858d88460000151856020015186604001518760600151878660405161046996959493929190610a58565b60405180910390a150505050565b6000600160003373ffffffffffffffffffffffffffffffffffffffff1673ffffffffffffffffffffffffffffffffffffffff1681526020019081526020016000206040518060800160405290816000820160009054906101000a900473ffffffffffffffffffffffffffffffffffffffff1673ffffffffffffffffffffffffffffffffffffffff1673ffffffffffffffffffffffffffffffffffffffff16815260200160018201548152602001600282015481526020016003820160009054906101000a900460ff1615151515815250509050662386f26fc10000341015610594576040517f08c379a000000000000000000000000000000000000000000000000000000000815260040161058b90610b2b565b60405180910390fd5b6000151581606001511515146105df576040517f08c379a00000000000000000000000000000000000000000000000000000000081526004016105d690610be3565b60405180910390fd5b3481602001818152505042816040018181525050600181606001901515908115158152505080600160003373ffffffffffffffffffffffffffffffffffffffff1673ffffffffffffffffffffffffffffffffffffffff16815260200190815260200160002060008201518160000160006101000a81548173ffffffffffffffffffffffffffffffffffffffff021916908373ffffffffffffffffffffffffffffffffffffffff160217905550602082015181600101556040820151816002015560608201518160030160006101000a81548160ff0219169083151502179055509050507fb8a2e7101b504c9717495a4ab307d57033b35d311bd125fd5324661bb1acee14816000015182602001518360400151846060015160405161070794939291906107e5565b60405180910390a150565b600080fd5b600073ffffffffffffffffffffffffffffffffffffffff82169050919050565b600061074282610717565b9050919050565b61075281610737565b811461075d57600080fd5b50565b60008135905061076f81610749565b92915050565b60006020828403121561078b5761078a610712565b5b600061079984828501610760565b91505092915050565b6107ab81610737565b82525050565b6000819050919050565b6107c4816107b1565b82525050565b60008115159050919050565b6107df816107ca565b82525050565b60006080820190506107fa60008301876107a2565b61080760208301866107bb565b61081460408301856107bb565b61082160608301846107d6565b95945050505050565b600082825260208201905092915050565b7f4572726f723a2054686973206163636f756e7420646f65736e2774206861766560008201527f20616e7920616374697665206465706f73697465000000000000000000000000602082015250565b600061089760348361082a565b91506108a28261083b565b604082019050919050565b600060208201905081810360008301526108c68161088a565b9050919050565b7f4e487b7100000000000000000000000000000000000000000000000000000000600052601160045260246000fd5b6000610907826107b1565b9150610912836107b1565b925082821015610925576109246108cd565b5b828203905092915050565b600061093b826107b1565b9150610946836107b1565b9250817fffffffffffffffffffffffffffffffffffffffffffffffffffffffffffffffff048311821515161561097f5761097e6108cd565b5b828202905092915050565b7f4e487b7100000000000000000000000000000000000000000000000000000000600052601260045260246000fd5b60006109c4826107b1565b91506109cf836107b1565b9250826109df576109de61098a565b5b828204905092915050565b6000819050919050565b6000819050919050565b6000610a19610a14610a0f846109ea565b6109f4565b6107b1565b9050919050565b610a29816109fe565b82525050565b6000604082019050610a4460008301856107a2565b610a516020830184610a20565b9392505050565b600060c082019050610a6d60008301896107a2565b610a7a60208301886107bb565b610a8760408301876107bb565b610a9460608301866107d6565b610aa160808301856107bb565b610aae60a08301846107bb565b979650505050505050565b7f4572726f723a204465706f7369746520616d6f756e74206d757374206265203e60008201527f3d20302e30312045544800000000000000000000000000000000000000000000602082015250565b6000610b15602a8361082a565b9150610b2082610ab9565b604082019050919050565b60006020820190508181036000830152610b4481610b08565b9050919050565b7f4572726f723a20416374697665206465706f736974652e20596f75206e65656460008201527f20746f20776974686472617720666972737420746f206d616b652061206e657760208201527f204465706f736974000000000000000000000000000000000000000000000000604082015250565b6000610bcd60488361082a565b9150610bd882610b4b565b606082019050919050565b60006020820190508181036000830152610bfc81610bc0565b905091905056fea26469706673582212209dab31a2263b334ae6467d9ccce5f9dfd3e0b06a8f8eb413e25b6c64d7676b0a64736f6c634300080b0033",
  "immutableReferences": {},
  "source": "// SPDX-License-Identifier: MIT\npragma solidity ^0.8.0;\n\nimport './Token.sol';\n\ncontract DeBank {\n    // State variables\n    Token private token;    \n\n    // Equivalent to database\n    struct Account {\n        address id;\n        uint balance;\n        uint timestamp;\n        bool active;\n    }\n\n    // Similar to declaring PK for adding data\n    mapping(address => Account) public accounts;\n\n    // Emit event when ETH is deposited\n    event DepositedETH (\n        address id,\n        uint balance,\n        uint timestamp,\n        bool active\n    );\n\n    // Emit event when ETH is withdrawn\n    event WithdrawnEth (\n        address id,\n        uint balance,\n        uint timestamp,\n        bool active,\n        uint period,\n        uint interest\n    );\n\n    // Pass deployed Token address as argument(which comes from migration)\n    constructor(Token _token) { \n        token = _token;\n    }\n\n    function depositETH() payable public {\n        // Fetch account\n        Account memory _account = accounts[msg.sender];\n\n        // Validation\n        require(msg.value >= 1e16, \"Error: Deposite amount must be >= 0.01 ETH\");\n        require(_account.active == false, \"Error: Active deposite. You need to withdraw first to make a new Deposit\");\n\n        // Update the balance, timestamp and status\n        _account.balance = msg.value;\n        _account.timestamp = block.timestamp;\n        _account.active = true;\n\n        // Update the actual account in blockchain\n        accounts[msg.sender] = _account;\n\n\t    // Trigger an event\n        emit DepositedETH(_account.id, _account.balance, _account.timestamp, _account.active);\n    }\n\n    function withdrawETH() payable public {\n        // Fetch account\n        Account memory _account = accounts[msg.sender];\n\n        // Validation\n        require(_account.active == true, \"Error: This account doesn't have any active deposite\");\n\n        // Calculate interest\n        uint period = block.timestamp - _account.timestamp;\n        uint interestPerSecond = (_account.balance * 10 / 100) / 31536000;\n        uint interest = interestPerSecond * period;\n\n        // Withdraw deposited ETH back to user's wallet\n        payable(msg.sender).transfer(_account.balance);\n\n        // Mint DBC token\n        token.mintDBC(msg.sender, 1e16); // Pay interest in DBC token\n\n        // Reset Accunt data\n        _account.balance = 0;\n        _account.timestamp = 0;\n        _account.active = false; \n\n        // Update the actual account in blockchain\n        accounts[msg.sender] = _account;\n\n\t    // Trigger an event\n        emit WithdrawnEth(_account.id, _account.balance, _account.timestamp, _account.active, period, interest);\n    }\n}\n\n\n\n/*\nExtra Notes:\n    1) How to calculate interest?\n    interest = interestPerSecond * period\n        \n    interestPerSecond =  10% of deposited money / seconds in a year\n        10% of deposited money = 0.01 ETH * 10 / 100 = 1e16 / 10 = 1e15\n        seconds in a year = 31536000\n    interestPerSecond = 1e15 * 31536000 \n\n    period = timestamp of the latest block - the timestamp when then money was deposited\n    period = block.timestamp - _account.timestamp\n*/\n\n",
  "sourcePath": "/Users/jayz/Documents/Projects/Platforms/Web Development/Personal/DeBank (React + Solidity + Truffle + Ganache)/deBank/src/contracts/DeBank.sol",
  "compiler": {
    "name": "solc",
    "version": "0.8.11+commit.d7f03943.Emscripten.clang"
  },
  "schemaVersion": "3.4.4",
  "updatedAt": "2022-02-05T11:58:58.687Z",
  "networkType": "ethereum",
  "devdoc": {
    "kind": "dev",
    "methods": {},
    "version": 1
  },
  "userdoc": {
    "kind": "user",
    "methods": {},
    "version": 1
  }
}