{
  "contractName": "DeBank",
  "abi": [
    {
      "inputs": [
        {
          "internalType": "contract Token",
          "name": "_token",
          "type": "address"
        }
      ],
      "stateMutability": "nonpayable",
      "type": "constructor"
    },
    {
      "anonymous": false,
      "inputs": [
        {
          "indexed": false,
          "internalType": "address",
          "name": "id",
          "type": "address"
        },
        {
          "indexed": false,
          "internalType": "uint256",
          "name": "collateral",
          "type": "uint256"
        },
        {
          "indexed": false,
          "internalType": "bool",
          "name": "isBorrowed",
          "type": "bool"
        },
        {
          "indexed": false,
          "internalType": "uint256",
          "name": "loan",
          "type": "uint256"
        }
      ],
      "name": "BorrowedDBC",
      "type": "event"
    },
    {
      "anonymous": false,
      "inputs": [
        {
          "indexed": false,
          "internalType": "address",
          "name": "id",
          "type": "address"
        },
        {
          "indexed": false,
          "internalType": "uint256",
          "name": "balance",
          "type": "uint256"
        },
        {
          "indexed": false,
          "internalType": "uint256",
          "name": "timestamp",
          "type": "uint256"
        },
        {
          "indexed": false,
          "internalType": "bool",
          "name": "isDeposited",
          "type": "bool"
        }
      ],
      "name": "DepositedETH",
      "type": "event"
    },
    {
      "anonymous": false,
      "inputs": [
        {
          "indexed": false,
          "internalType": "address",
          "name": "id",
          "type": "address"
        },
        {
          "indexed": false,
          "internalType": "uint256",
          "name": "collateral",
          "type": "uint256"
        },
        {
          "indexed": false,
          "internalType": "bool",
          "name": "isBorrowed",
          "type": "bool"
        },
        {
          "indexed": false,
          "internalType": "uint256",
          "name": "fee",
          "type": "uint256"
        }
      ],
      "name": "ReturnedDBC",
      "type": "event"
    },
    {
      "anonymous": false,
      "inputs": [
        {
          "indexed": false,
          "internalType": "address",
          "name": "id",
          "type": "address"
        },
        {
          "indexed": false,
          "internalType": "uint256",
          "name": "balance",
          "type": "uint256"
        },
        {
          "indexed": false,
          "internalType": "uint256",
          "name": "timestamp",
          "type": "uint256"
        },
        {
          "indexed": false,
          "internalType": "bool",
          "name": "isDeposited",
          "type": "bool"
        },
        {
          "indexed": false,
          "internalType": "uint256",
          "name": "interest",
          "type": "uint256"
        }
      ],
      "name": "WithdrawnEth",
      "type": "event"
    },
    {
      "inputs": [
        {
          "internalType": "address",
          "name": "",
          "type": "address"
        }
      ],
      "name": "accounts",
      "outputs": [
        {
          "internalType": "address",
          "name": "id",
          "type": "address"
        },
        {
          "internalType": "uint256",
          "name": "balance",
          "type": "uint256"
        },
        {
          "internalType": "uint256",
          "name": "collateral",
          "type": "uint256"
        },
        {
          "internalType": "uint256",
          "name": "timestamp",
          "type": "uint256"
        },
        {
          "internalType": "bool",
          "name": "isDeposited",
          "type": "bool"
        },
        {
          "internalType": "bool",
          "name": "isBorrowed",
          "type": "bool"
        }
      ],
      "stateMutability": "view",
      "type": "function",
      "constant": true
    },
    {
      "inputs": [],
      "name": "depositETH",
      "outputs": [],
      "stateMutability": "payable",
      "type": "function",
      "payable": true
    },
    {
      "inputs": [],
      "name": "withdrawETH",
      "outputs": [],
      "stateMutability": "payable",
      "type": "function",
      "payable": true
    },
    {
      "inputs": [],
      "name": "borrowDBC",
      "outputs": [],
      "stateMutability": "payable",
      "type": "function",
      "payable": true
    },
    {
      "inputs": [],
      "name": "returnDBC",
      "outputs": [],
      "stateMutability": "nonpayable",
      "type": "function"
    }
  ],
  "bytecode": "0x60806040523480156200001157600080fd5b50604051620017fa380380620017fa8339818101604052810190620000379190620000fc565b806000806101000a81548173ffffffffffffffffffffffffffffffffffffffff021916908373ffffffffffffffffffffffffffffffffffffffff160217905550506200012e565b600080fd5b600073ffffffffffffffffffffffffffffffffffffffff82169050919050565b6000620000b08262000083565b9050919050565b6000620000c482620000a3565b9050919050565b620000d681620000b7565b8114620000e257600080fd5b50565b600081519050620000f681620000cb565b92915050565b6000602082840312156200011557620001146200007e565b5b60006200012584828501620000e5565b91505092915050565b6116bc806200013e6000396000f3fe60806040526004361061004a5760003560e01c80635e5c06e21461004f5780636a00600214610091578063c0a5aae21461009b578063e086e5ec146100b2578063f6326fb3146100bc575b600080fd5b34801561005b57600080fd5b5061007660048036038101906100719190610eec565b6100c6565b60405161008896959493929190610f5c565b60405180910390f35b61009961013c565b005b3480156100a757600080fd5b506100b06104c8565b005b6100ba6107ca565b005b6100c4610b9f565b005b60016020528060005260406000206000915090508060000160009054906101000a900473ffffffffffffffffffffffffffffffffffffffff16908060010154908060020154908060030154908060040160009054906101000a900460ff16908060040160019054906101000a900460ff16905086565b6000600160003373ffffffffffffffffffffffffffffffffffffffff1673ffffffffffffffffffffffffffffffffffffffff1681526020019081526020016000206040518060c00160405290816000820160009054906101000a900473ffffffffffffffffffffffffffffffffffffffff1673ffffffffffffffffffffffffffffffffffffffff1673ffffffffffffffffffffffffffffffffffffffff1681526020016001820154815260200160028201548152602001600382015481526020016004820160009054906101000a900460ff161515151581526020016004820160019054906101000a900460ff1615151515815250509050662386f26fc1000034101561027e576040517f08c379a000000000000000000000000000000000000000000000000000000000815260040161027590611040565b60405180910390fd5b600015158160a001511515146102c9576040517f08c379a00000000000000000000000000000000000000000000000000000000081526004016102c0906110ac565b60405180910390fd5b3481604001516102d991906110fb565b8160400181815250506000600282604001516102f59190611180565b905060008054906101000a900473ffffffffffffffffffffffffffffffffffffffff1673ffffffffffffffffffffffffffffffffffffffff16633c9e197f3033846040518463ffffffff1660e01b8152600401610354939291906111b1565b600060405180830381600087803b15801561036e57600080fd5b505af1158015610382573d6000803e3d6000fd5b5050505060018260a001901515908115158152505081600160003373ffffffffffffffffffffffffffffffffffffffff1673ffffffffffffffffffffffffffffffffffffffff16815260200190815260200160002060008201518160000160006101000a81548173ffffffffffffffffffffffffffffffffffffffff021916908373ffffffffffffffffffffffffffffffffffffffff16021790555060208201518160010155604082015181600201556060820151816003015560808201518160040160006101000a81548160ff02191690831515021790555060a08201518160040160016101000a81548160ff0219169083151502179055509050507fb8b836464cff15d0150f4190fe8e1be3a81b3c6d5a7a413c60ee93fdd747c8343383604001518460a00151846040516104bc94939291906111e8565b60405180910390a15050565b6000600160003373ffffffffffffffffffffffffffffffffffffffff1673ffffffffffffffffffffffffffffffffffffffff1681526020019081526020016000206040518060c00160405290816000820160009054906101000a900473ffffffffffffffffffffffffffffffffffffffff1673ffffffffffffffffffffffffffffffffffffffff1673ffffffffffffffffffffffffffffffffffffffff1681526020016001820154815260200160028201548152602001600382015481526020016004820160009054906101000a900460ff161515151581526020016004820160019054906101000a900460ff1615151515815250509050600115158160a0015115151461060b576040517f08c379a00000000000000000000000000000000000000000000000000000000081526004016106029061129f565b60405180910390fd5b60008054906101000a900473ffffffffffffffffffffffffffffffffffffffff1673ffffffffffffffffffffffffffffffffffffffff166323b872dd33306002856040015161065a9190611180565b6040518463ffffffff1660e01b8152600401610678939291906111b1565b6020604051808303816000875af1158015610697573d6000803e3d6000fd5b505050506040513d601f19601f820116820180604052508101906106bb91906112eb565b6106fa576040517f08c379a00000000000000000000000000000000000000000000000000000000081526004016106f190611364565b60405180910390fd5b6000600a826040015161070d9190611180565b90503373ffffffffffffffffffffffffffffffffffffffff166108fc8284604001516107399190611384565b9081150290604051600060405180830381858888f19350505050158015610764573d6000803e3d6000fd5b50600082604001818152505060008260a00190151590811515815250507f7c5b7b5ecce5c7d3f872dc10b80210ddcf2732f84c9ab8e5bfb0b30da0d1a70c3383604001518460a00151846040516107be94939291906111e8565b60405180910390a15050565b6000600160003373ffffffffffffffffffffffffffffffffffffffff1673ffffffffffffffffffffffffffffffffffffffff1681526020019081526020016000206040518060c00160405290816000820160009054906101000a900473ffffffffffffffffffffffffffffffffffffffff1673ffffffffffffffffffffffffffffffffffffffff1673ffffffffffffffffffffffffffffffffffffffff1681526020016001820154815260200160028201548152602001600382015481526020016004820160009054906101000a900460ff161515151581526020016004820160019054906101000a900460ff161515151581525050905060011515816080015115151461090d576040517f08c379a00000000000000000000000000000000000000000000000000000000081526004016109049061142a565b60405180910390fd5b600081606001514261091f9190611384565b905060006301e133806064600a856020015161093b919061144a565b6109459190611180565b61094f9190611180565b90506000828261095f919061144a565b90503373ffffffffffffffffffffffffffffffffffffffff166108fc85602001519081150290604051600060405180830381858888f193505050501580156109ab573d6000803e3d6000fd5b5060008054906101000a900473ffffffffffffffffffffffffffffffffffffffff1673ffffffffffffffffffffffffffffffffffffffff16633c9e197f3033846040518463ffffffff1660e01b8152600401610a09939291906111b1565b600060405180830381600087803b158015610a2357600080fd5b505af1158015610a37573d6000803e3d6000fd5b5050505060008460200181815250506000846060018181525050600084608001901515908115158152505083600160003373ffffffffffffffffffffffffffffffffffffffff1673ffffffffffffffffffffffffffffffffffffffff16815260200190815260200160002060008201518160000160006101000a81548173ffffffffffffffffffffffffffffffffffffffff021916908373ffffffffffffffffffffffffffffffffffffffff16021790555060208201518160010155604082015181600201556060820151816003015560808201518160040160006101000a81548160ff02191690831515021790555060a08201518160040160016101000a81548160ff0219169083151502179055509050507fe5364eab14bb4b224df7182430dfe739e8fde625d6057456d8a77bf38ee760bf846000015185602001518660600151876080015185604051610b919594939291906114a4565b60405180910390a150505050565b6000600160003373ffffffffffffffffffffffffffffffffffffffff1673ffffffffffffffffffffffffffffffffffffffff1681526020019081526020016000206040518060c00160405290816000820160009054906101000a900473ffffffffffffffffffffffffffffffffffffffff1673ffffffffffffffffffffffffffffffffffffffff1673ffffffffffffffffffffffffffffffffffffffff1681526020016001820154815260200160028201548152602001600382015481526020016004820160009054906101000a900460ff161515151581526020016004820160019054906101000a900460ff1615151515815250509050662386f26fc10000341015610ce1576040517f08c379a0000000000000000000000000000000000000000000000000000000008152600401610cd890611569565b60405180910390fd5b600015158160800151151514610d2c576040517f08c379a0000000000000000000000000000000000000000000000000000000008152600401610d2390611621565b60405180910390fd5b3481602001818152505042816060018181525050600181608001901515908115158152505080600160003373ffffffffffffffffffffffffffffffffffffffff1673ffffffffffffffffffffffffffffffffffffffff16815260200190815260200160002060008201518160000160006101000a81548173ffffffffffffffffffffffffffffffffffffffff021916908373ffffffffffffffffffffffffffffffffffffffff16021790555060208201518160010155604082015181600201556060820151816003015560808201518160040160006101000a81548160ff02191690831515021790555060a08201518160040160016101000a81548160ff0219169083151502179055509050507fb8a2e7101b504c9717495a4ab307d57033b35d311bd125fd5324661bb1acee148160000151826020015183606001518460800151604051610e7e9493929190611641565b60405180910390a150565b600080fd5b600073ffffffffffffffffffffffffffffffffffffffff82169050919050565b6000610eb982610e8e565b9050919050565b610ec981610eae565b8114610ed457600080fd5b50565b600081359050610ee681610ec0565b92915050565b600060208284031215610f0257610f01610e89565b5b6000610f1084828501610ed7565b91505092915050565b610f2281610eae565b82525050565b6000819050919050565b610f3b81610f28565b82525050565b60008115159050919050565b610f5681610f41565b82525050565b600060c082019050610f716000830189610f19565b610f7e6020830188610f32565b610f8b6040830187610f32565b610f986060830186610f32565b610fa56080830185610f4d565b610fb260a0830184610f4d565b979650505050505050565b600082825260208201905092915050565b7f4572726f723a20436f6c6c61746572616c206d757374206265203e3d20302e3060008201527f3120455448000000000000000000000000000000000000000000000000000000602082015250565b600061102a602583610fbd565b915061103582610fce565b604082019050919050565b600060208201905081810360008301526110598161101d565b9050919050565b7f4572726f723a204c6f616e20697320616c72656164792074616b656e00000000600082015250565b6000611096601c83610fbd565b91506110a182611060565b602082019050919050565b600060208201905081810360008301526110c581611089565b9050919050565b7f4e487b7100000000000000000000000000000000000000000000000000000000600052601160045260246000fd5b600061110682610f28565b915061111183610f28565b9250827fffffffffffffffffffffffffffffffffffffffffffffffffffffffffffffffff03821115611146576111456110cc565b5b828201905092915050565b7f4e487b7100000000000000000000000000000000000000000000000000000000600052601260045260246000fd5b600061118b82610f28565b915061119683610f28565b9250826111a6576111a5611151565b5b828204905092915050565b60006060820190506111c66000830186610f19565b6111d36020830185610f19565b6111e06040830184610f32565b949350505050565b60006080820190506111fd6000830187610f19565b61120a6020830186610f32565b6112176040830185610f4d565b6112246060830184610f32565b95945050505050565b7f4572726f723a20596f7520646f6e2774206861766520616e792061637469766560008201527f206c6f616e000000000000000000000000000000000000000000000000000000602082015250565b6000611289602583610fbd565b91506112948261122d565b604082019050919050565b600060208201905081810360008301526112b88161127c565b9050919050565b6112c881610f41565b81146112d357600080fd5b50565b6000815190506112e5816112bf565b92915050565b60006020828403121561130157611300610e89565b5b600061130f848285016112d6565b91505092915050565b7f4572726f723a2043616e27742072656365697665204442430000000000000000600082015250565b600061134e601883610fbd565b915061135982611318565b602082019050919050565b6000602082019050818103600083015261137d81611341565b9050919050565b600061138f82610f28565b915061139a83610f28565b9250828210156113ad576113ac6110cc565b5b828203905092915050565b7f4572726f723a2054686973206163636f756e7420646f65736e2774206861766560008201527f20616e7920616374697665206465706f73697465000000000000000000000000602082015250565b6000611414603483610fbd565b915061141f826113b8565b604082019050919050565b6000602082019050818103600083015261144381611407565b9050919050565b600061145582610f28565b915061146083610f28565b9250817fffffffffffffffffffffffffffffffffffffffffffffffffffffffffffffffff0483118215151615611499576114986110cc565b5b828202905092915050565b600060a0820190506114b96000830188610f19565b6114c66020830187610f32565b6114d36040830186610f32565b6114e06060830185610f4d565b6114ed6080830184610f32565b9695505050505050565b7f4572726f723a204465706f7369746520616d6f756e74206d757374206265203e60008201527f3d20302e30312045544800000000000000000000000000000000000000000000602082015250565b6000611553602a83610fbd565b915061155e826114f7565b604082019050919050565b6000602082019050818103600083015261158281611546565b9050919050565b7f4572726f723a204465706f73697420616c7265616479206578697374732e205960008201527f6f75206e65656420746f20776974686472617720666972737420746f206d616b60208201527f652061206e6577204465706f7369740000000000000000000000000000000000604082015250565b600061160b604f83610fbd565b915061161682611589565b606082019050919050565b6000602082019050818103600083015261163a816115fe565b9050919050565b60006080820190506116566000830187610f19565b6116636020830186610f32565b6116706040830185610f32565b61167d6060830184610f4d565b9594505050505056fea2646970667358221220f6282aba5777775eda22fb8bcf61d49ab638d219eb5dcafb9d4b5f7c7b6953b864736f6c634300080b0033",
  "immutableReferences": {},
  "source": "// SPDX-License-Identifier: MIT\npragma solidity ^0.8.0;\n\nimport \"./Token.sol\";\n\ncontract DeBank {\n    // State variables\n    Token private token;\n\n    // Equivalent to database\n    struct Account {\n        address id;\n        uint balance;\n        uint collateral;\n        uint timestamp;\n        bool isDeposited;\n        bool isBorrowed;\n    }\n\n    // Similar to declaring PK for adding data\n    mapping(address => Account) public accounts;\n\n    // Emit event when ETH is deposited\n    event DepositedETH (\n        address id,\n        uint balance,\n        uint timestamp,\n        bool isDeposited\n    );\n\n    // Emit event when ETH is withdrawn\n    event WithdrawnEth (\n        address id,\n        uint balance,\n        uint timestamp,\n        bool isDeposited,\n        uint interest\n    );\n\n    // Emit event when DBC is borrowed\n    event BorrowedDBC (\n        address id,\n        uint collateral,\n        bool isBorrowed,\n        uint loan\n    );\n\n    // Emit event when DBC debt is forfeited (paid off)\n    event ReturnedDBC(\n        address id,\n        uint collateral,\n        bool isBorrowed,\n        uint fee\n    );\n\n    // Pass deployed Token address as argument(which comes from migration)\n    constructor(Token _token) {\n        token = _token;\n    }\n\n    function depositETH() public payable {\n        // Fetch account\n        Account memory _account = accounts[msg.sender];\n\n        // Validation\n        require(msg.value >= 1e16, \"Error: Deposite amount must be >= 0.01 ETH\");\n        require(_account.isDeposited == false, \"Error: Deposit already exists. You need to withdraw first to make a new Deposit\");\n\n        // Upadate the account data\n        _account.balance = msg.value;\n        _account.timestamp = block.timestamp;\n        _account.isDeposited = true;\n\n        // Update the actual account in blockchain\n        accounts[msg.sender] = _account;\n\n        // Trigger an event\n        emit DepositedETH(_account.id, _account.balance, _account.timestamp, _account.isDeposited);\n    }\n\n    function withdrawETH() public payable {\n        // Fetch account\n        Account memory _account = accounts[msg.sender];\n\n        // Validation\n        require(_account.isDeposited == true, \"Error: This account doesn't have any active deposite\");\n\n        // Calculate interest\n        uint period = block.timestamp - _account.timestamp;\n        uint interestPerSecond = ((_account.balance * 10) / 100) / 31536000;\n        uint interest = interestPerSecond * period;\n\n        // Withdraw deposited ETH back to user's wallet\n        payable(msg.sender).transfer(_account.balance);\n\n        // Mint DBC token and pay the msg.sender\n        token.mintDBC(address(this), msg.sender, interest);\n\n        // Reset the account data\n        _account.balance = 0;\n        _account.timestamp = 0;\n        _account.isDeposited = false;\n\n        // Update the actual account in blockchain\n        accounts[msg.sender] = _account;\n\n        // Trigger an event\n        emit WithdrawnEth(_account.id, _account.balance, _account.timestamp, _account.isDeposited, interest);\n    }\n\n    function borrowDBC() public payable {\n        // Fetch account\n        Account memory _account = accounts[msg.sender];\n\n        // Validation\n        require(msg.value >= 1e16, \"Error: Collateral must be >= 0.01 ETH\");\n        require(_account.isBorrowed == false, \"Error: Loan is already taken\");\n\n        // Lock ETH as collateral till the loan is paid off\n        _account.collateral = _account.collateral + msg.value;\n\n        // Calculate DBC to mint (50% of collateral)\n        uint loan = _account.collateral / 2;\n\n        // Mint DBC token and pay the msg.sender\n        token.mintDBC(address(this), msg.sender, loan);\n\n        // Upadate the account data\n        _account.isBorrowed = true;\n\n        // Update the actual account in blockchain\n        accounts[msg.sender] = _account;\n\n        // Trigger an event\n        emit BorrowedDBC(msg.sender, _account.collateral, _account.isBorrowed, loan);\n    }\n\n    function returnDBC() public {\n        // Fetch account\n        Account memory _account = accounts[msg.sender];\n\n        // Validation\n        require(_account.isBorrowed == true, \"Error: You don't have any active loan\");\n\n        // Transfer token from msg.sender to deBank (transferFrom returns bool, that's it's added within require for extra validation)\n        require(token.transferFrom(msg.sender, address(this), _account.collateral / 2), \"Error: Can't receive DBC\"); // https://ethereum.org/en/developers/docs/standards/tokens/erc-20/\n\n        // Calculate collateral fee (10%)\n        uint fee = _account.collateral / 10;\n\n        // Give back msg.sender's collateral ETH - fee\n        payable(msg.sender).transfer(_account.collateral - fee);\n\n        // Reset the account data\n        _account.collateral = 0;\n        _account.isBorrowed = false;\n\n        // Trigger an event\n        emit ReturnedDBC(msg.sender, _account.collateral, _account.isBorrowed, fee);\n    }\n}\n\n/*\nExtra Notes:\n    1) Application logic\n    Conditions:\n        The contract is deployed by the deployer\n        Once it's deployed, the ownership of the Token has been transfered to the DeBank right away\n        Why? Because onlt DeBank should Mint new coins\n        A user can deposit Eth (minimum 0.01)\n        DeBank will calculate interest per second\n        On withdraw, user will get back his dposit (ETH) and the earned interest will be paid in DBC\n        A user can borrow DBC but has to put ETH as collateral\n        He can borrow 50% DBC of collateral ETH amount\n        He can return the debt\n        DeBank will take his 10% fee on collateral amount and pay back the rest\n\n    2) How to calculate interest?\n    interest = interestPerSecond * period\n        \n    interestPerSecond =  10% of deposited money / seconds in a year\n        10% of deposited money = 0.01 ETH * 10 / 100 = 1e16 / 10 = 1e15\n        seconds in a year = 31536000\n    interestPerSecond = 1e15 * 31536000 \n\n    period = timestamp of the latest block - the timestamp when then money was deposited\n    period = block.timestamp - _account.timestamp\n*/\n",
  "sourcePath": "/Users/jayz/Documents/Projects/Platforms/Web Development/Personal/DeBank (React + Solidity + Truffle + Ganache)/deBank/src/contracts/DeBank.sol",
  "compiler": {
    "name": "solc",
    "version": "0.8.11+commit.d7f03943.Emscripten.clang"
  },
  "schemaVersion": "3.4.4",
  "updatedAt": "2022-02-07T10:36:31.529Z",
  "networkType": "ethereum",
  "devdoc": {
    "kind": "dev",
    "methods": {},
    "version": 1
  },
  "userdoc": {
    "kind": "user",
    "methods": {},
    "version": 1
  }
}